{
  "contractName": "Expenses",
  "abi": [
    {
      "inputs": [],
      "payable": false,
      "stateMutability": "nonpayable",
      "type": "constructor"
    },
    {
      "anonymous": false,
      "inputs": [],
      "name": "overBudget",
      "type": "event"
    },
    {
      "anonymous": false,
      "inputs": [],
      "name": "endOfCategory",
      "type": "event"
    },
    {
      "anonymous": false,
      "inputs": [],
      "name": "expenseApproved",
      "type": "event"
    },
    {
      "anonymous": false,
      "inputs": [
        {
          "indexed": false,
          "name": "_name",
          "type": "string"
        }
      ],
      "name": "requestCategory",
      "type": "event"
    },
    {
      "constant": false,
      "inputs": [
        {
          "name": "_address",
          "type": "address"
        }
      ],
      "name": "_addManager",
      "outputs": [],
      "payable": false,
      "stateMutability": "nonpayable",
      "type": "function"
    },
    {
      "constant": false,
      "inputs": [
        {
          "name": "_name",
          "type": "string"
        },
        {
          "name": "_budget",
          "type": "uint256"
        }
      ],
      "name": "_createCategory",
      "outputs": [],
      "payable": true,
      "stateMutability": "payable",
      "type": "function"
    },
    {
      "constant": false,
      "inputs": [
        {
          "name": "_name",
          "type": "string"
        }
      ],
      "name": "_deleteCategory",
      "outputs": [
        {
          "name": "",
          "type": "string"
        }
      ],
      "payable": false,
      "stateMutability": "nonpayable",
      "type": "function"
    },
    {
      "constant": false,
      "inputs": [
        {
          "name": "_address",
          "type": "address"
        },
        {
          "name": "_name",
          "type": "string"
        },
        {
          "name": "_cost",
          "type": "uint256"
        }
      ],
      "name": "_isValidExpense",
      "outputs": [
        {
          "name": "",
          "type": "bool"
        }
      ],
      "payable": false,
      "stateMutability": "nonpayable",
      "type": "function"
    },
    {
      "constant": true,
      "inputs": [],
      "name": "_viewManagers",
      "outputs": [
        {
          "components": [
            {
              "name": "_address",
              "type": "address"
            },
            {
              "name": "_exists",
              "type": "bool"
            }
          ],
          "name": "",
          "type": "tuple[]"
        }
      ],
      "payable": false,
      "stateMutability": "view",
      "type": "function"
    },
    {
      "constant": true,
      "inputs": [],
      "name": "_viewCategories",
      "outputs": [
        {
          "components": [
            {
              "name": "_name",
              "type": "string"
            },
            {
              "name": "_budget",
              "type": "uint256"
            }
          ],
          "name": "",
          "type": "tuple[]"
        }
      ],
      "payable": false,
      "stateMutability": "view",
      "type": "function"
    }
  ],
  "bytecode": "0x608060405234801561001057600080fd5b50610019610144565b336000806101000a81548173ffffffffffffffffffffffffffffffffffffffff021916908373ffffffffffffffffffffffffffffffffffffffff16021790555060408051908101604052806000809054906101000a900473ffffffffffffffffffffffffffffffffffffffff1673ffffffffffffffffffffffffffffffffffffffff16815260200160011515815250905060018190806001815401808255809150509060018203906000526020600020016000909192909190915060008201518160000160006101000a81548173ffffffffffffffffffffffffffffffffffffffff021916908373ffffffffffffffffffffffffffffffffffffffff16021790555060208201518160000160146101000a81548160ff02191690831515021790555050505050610176565b6040805190810160405280600073ffffffffffffffffffffffffffffffffffffffff1681526020016000151581525090565b611e73806101856000396000f300608060405260043610610078576000357c0100000000000000000000000000000000000000000000000000000000900463ffffffff16806334eea7641461007d578063353a44f5146100a857806342d38747146100d357806387f55dba1461011057806392d556d81461014d578063da5fa89014610169575b600080fd5b34801561008957600080fd5b50610092610192565b60405161009f9190611c6e565b60405180910390f35b3480156100b457600080fd5b506100bd61025e565b6040516100ca9190611c4c565b60405180910390f35b3480156100df57600080fd5b506100fa60048036036100f591908101906119e9565b610369565b6040516101079190611cab565b60405180910390f35b34801561011c57600080fd5b5061013760048036036101329190810190611982565b610863565b6040516101449190611c90565b60405180910390f35b61016760048036036101629190810190611a2a565b6110b8565b005b34801561017557600080fd5b50610190600480360361018b9190810190611959565b611517565b005b60606001805480602002602001604051908101604052809291908181526020016000905b82821015610255578382906000526020600020016040805190810160405290816000820160009054906101000a900473ffffffffffffffffffffffffffffffffffffffff1673ffffffffffffffffffffffffffffffffffffffff1673ffffffffffffffffffffffffffffffffffffffff1681526020016000820160149054906101000a900460ff161515151581525050815260200190600101906101b6565b50505050905090565b60606002805480602002602001604051908101604052809291908181526020016000905b828210156103605783829060005260206000209060020201604080519081016040529081600082018054600181600116156101000203166002900480601f01602080910402602001604051908101604052809291908181526020018280546001816001161561010002031660029004801561033e5780601f106103135761010080835404028352916020019161033e565b820191906000526020600020905b81548152906001019060200180831161032157829003601f168201915b5050505050815260200160018201548152505081526020019060010190610282565b50505050905090565b606060008061037661171b565b6060336000610383611735565b600091505b600180549050821015610857576001828154811015156103a457fe5b906000526020600020016040805190810160405290816000820160009054906101000a900473ffffffffffffffffffffffffffffffffffffffff1673ffffffffffffffffffffffffffffffffffffffff1673ffffffffffffffffffffffffffffffffffffffff1681526020016000820160149054906101000a900460ff16151515158152505090508273ffffffffffffffffffffffffffffffffffffffff16816000015173ffffffffffffffffffffffffffffffffffffffff16141561084a5760009650600095505b6002805490508610156108015760028681548110151561048957fe5b9060005260206000209060020201604080519081016040529081600082018054600181600116156101000203166002900480601f01602080910402602001604051908101604052809291908181526020018280546001816001161561010002031660029004801561053b5780601f106105105761010080835404028352916020019161053b565b820191906000526020600020905b81548152906001019060200180831161051e57829003601f168201915b505050505081526020016001820154815250509450886040516020018082805190602001908083835b6020831015156105895780518252602082019150602081019050602083039250610564565b6001836020036101000a0380198251168184511680821785525050505050509050019150506040516020818303038152906040526040518082805190602001908083835b6020831015156105f257805182526020820191506020810190506020830392506105cd565b6001836020036101000a03801982511681845116808217855250505050505090500191505060405180910390206000191685600001516040516020018082805190602001908083835b602083101515610660578051825260208201915060208101905060208303925061063b565b6001836020036101000a0380198251168184511680821785525050505050509050019150506040516020818303038152906040526040518082805190602001908083835b6020831015156106c957805182526020820191506020810190506020830392506106a4565b6001836020036101000a03801982511681845116808217855250505050505090500191505060405180910390206000191614156107f4576001965060028681548110151561071357fe5b9060005260206000209060020201600080820160006107329190611767565b60018201600090555050600260016002805490500381548110151561075357fe5b906000526020600020906002020160028781548110151561077057fe5b9060005260206000209060020201600082018160000190805460018160011615610100020316600290046107a59291906117af565b506001820154816001015590505060026001600280549050038154811015156107ca57fe5b9060005260206000209060020201600080820160006107e99190611767565b600182016000905550505b858060010196505061046d565b861515610848576040805190810160405280601881526020017f2043617465676f727920776173206e6f7420666f756e642e00000000000000008152509350839750610849565b5b5b8180600101925050610388565b50505050505050919050565b60008060008061087161171b565b86600061087c61171b565b600091505b6002805490508210156110735760028281548110151561089d57fe5b9060005260206000209060020201604080519081016040529081600082018054600181600116156101000203166002900480601f01602080910402602001604051908101604052809291908181526020018280546001816001161561010002031660029004801561094f5780601f106109245761010080835404028352916020019161094f565b820191906000526020600020905b81548152906001019060200180831161093257829003601f168201915b505050505081526020016001820154815250509050826040516020018082805190602001908083835b60208310151561099d5780518252602082019150602081019050602083039250610978565b6001836020036101000a0380198251168184511680821785525050505050509050019150506040516020818303038152906040526040518082805190602001908083835b602083101515610a0657805182526020820191506020810190506020830392506109e1565b6001836020036101000a03801982511681845116808217855250505050505090500191505060405180910390206000191681600001516040516020018082805190602001908083835b602083101515610a745780518252602082019150602081019050602083039250610a4f565b6001836020036101000a0380198251168184511680821785525050505050509050019150506040516020818303038152906040526040518082805190602001908083835b602083101515610add5780518252602082019150602081019050602083039250610ab8565b6001836020036101000a038019825116818451168082178552505050505050905001915050604051809103902060001916141561106657600360008c73ffffffffffffffffffffffffffffffffffffffff1673ffffffffffffffffffffffffffffffffffffffff1681526020019081526020016000206000018a6040518082805190602001908083835b602083101515610b8c5780518252602082019150602081019050602083039250610b67565b6001836020036101000a0380198251168184511680821785525050505050509050019150509081526020016040518091039020549650610bd589886116e490919063ffffffff16565b9650600094505b600280549050851015610e8457600285815481101515610bf857fe5b9060005260206000209060020201604080519081016040529081600082018054600181600116156101000203166002900480601f016020809104026020016040519081016040528092919081815260200182805460018160011615610100020316600290048015610caa5780601f10610c7f57610100808354040283529160200191610caa565b820191906000526020600020905b815481529060010190602001808311610c8d57829003601f168201915b505050505081526020016001820154815250509350896040516020018082805190602001908083835b602083101515610cf85780518252602082019150602081019050602083039250610cd3565b6001836020036101000a0380198251168184511680821785525050505050509050019150506040516020818303038152906040526040518082805190602001908083835b602083101515610d615780518252602082019150602081019050602083039250610d3c565b6001836020036101000a03801982511681845116808217855250505050505090500191505060405180910390206000191684600001516040516020018082805190602001908083835b602083101515610dcf5780518252602082019150602081019050602083039250610daa565b6001836020036101000a0380198251168184511680821785525050505050509050019150506040516020818303038152906040526040518082805190602001908083835b602083101515610e385780518252602082019150602081019050602083039250610e13565b6001836020036101000a0380198251168184511680821785525050505050509050019150506040518091039020600019161415610e7757836020015195505b8480600101955050610bdc565b85871115156110345786600360008d73ffffffffffffffffffffffffffffffffffffffff1673ffffffffffffffffffffffffffffffffffffffff1681526020019081526020016000206000018b6040518082805190602001908083835b602083101515610f065780518252602082019150602081019050602083039250610ee1565b6001836020036101000a038019825116818451168082178552505050505050905001915050908152602001604051809103902081905550610f50878761170290919063ffffffff16565b600360008d73ffffffffffffffffffffffffffffffffffffffff1673ffffffffffffffffffffffffffffffffffffffff1681526020019081526020016000206001018b6040518082805190602001908083835b602083101515610fc85780518252602082019150602081019050602083039250610fa3565b6001836020036101000a0380198251168184511680821785525050505050509050019150509081526020016040518091039020819055507ff9a93fea40527e9a2ca6e5087c4b0140edfc61566d73f0d2be4dd346bd8d036760405160405180910390a160019750611065565b7f4804d6f6ba573401b8091b8857267bb73e5bb6c709fc3ddbd588841164e54b9660405160405180910390a1600097505b5b8180600101925050610881565b7f8ca90280caf721d51c7b8acac9ec65744c44954f3f3539366b2ae659888e0e30836040516110a29190611cab565b60405180910390a1505050505050509392505050565b60006110c261171b565b60006110cc61171b565b3360006110d7611735565b600091505b60018054905082101561150c576001828154811015156110f857fe5b906000526020600020016040805190810160405290816000820160009054906101000a900473ffffffffffffffffffffffffffffffffffffffff1673ffffffffffffffffffffffffffffffffffffffff1673ffffffffffffffffffffffffffffffffffffffff1681526020016000820160149054906101000a900460ff16151515158152505090508273ffffffffffffffffffffffffffffffffffffffff16816000015173ffffffffffffffffffffffffffffffffffffffff1614156114ff5760009650600094505b60028054905085101561148b576002858154811015156111dd57fe5b9060005260206000209060020201604080519081016040529081600082018054600181600116156101000203166002900480601f01602080910402602001604051908101604052809291908181526020018280546001816001161561010002031660029004801561128f5780601f106112645761010080835404028352916020019161128f565b820191906000526020600020905b81548152906001019060200180831161127257829003601f168201915b505050505081526020016001820154815250509350886040516020018082805190602001908083835b6020831015156112dd57805182526020820191506020810190506020830392506112b8565b6001836020036101000a0380198251168184511680821785525050505050509050019150506040516020818303038152906040526040518082805190602001908083835b6020831015156113465780518252602082019150602081019050602083039250611321565b6001836020036101000a03801982511681845116808217855250505050505090500191505060405180910390206000191684600001516040516020018082805190602001908083835b6020831015156113b4578051825260208201915060208101905060208303925061138f565b6001836020036101000a0380198251168184511680821785525050505050509050019150506040516020818303038152906040526040518082805190602001908083835b60208310151561141d57805182526020820191506020810190506020830392506113f8565b6001836020036101000a038019825116818451168082178552505050505050905001915050604051809103902060001916141561147e57600196508760028681548110151561146857fe5b9060005260206000209060020201600101819055505b84806001019550506111c1565b8615156114fe57888660000181905250878660200181815250506002869080600181540180825580915050906001820390600052602060002090600202016000909192909190915060008201518160000190805190602001906114ef929190611836565b50602082015181600101555050505b5b81806001019250506110dc565b505050505050505050565b61151f611735565b33600061152a611735565b600091505b6001805490508210156116dd5760018281548110151561154b57fe5b906000526020600020016040805190810160405290816000820160009054906101000a900473ffffffffffffffffffffffffffffffffffffffff1673ffffffffffffffffffffffffffffffffffffffff1673ffffffffffffffffffffffffffffffffffffffff1681526020016000820160149054906101000a900460ff16151515158152505090508273ffffffffffffffffffffffffffffffffffffffff16816000015173ffffffffffffffffffffffffffffffffffffffff1614156116d05760408051908101604052808673ffffffffffffffffffffffffffffffffffffffff16815260200160011515815250935060018490806001815401808255809150509060018203906000526020600020016000909192909190915060008201518160000160006101000a81548173ffffffffffffffffffffffffffffffffffffffff021916908373ffffffffffffffffffffffffffffffffffffffff16021790555060208201518160000160146101000a81548160ff0219169083151502179055505050505b818060010192505061152f565b5050505050565b60008082840190508381101515156116f857fe5b8091505092915050565b600082821115151561171057fe5b818303905092915050565b604080519081016040528060608152602001600081525090565b6040805190810160405280600073ffffffffffffffffffffffffffffffffffffffff1681526020016000151581525090565b50805460018160011615610100020316600290046000825580601f1061178d57506117ac565b601f0160209004906000526020600020908101906117ab91906118b6565b5b50565b828054600181600116156101000203166002900490600052602060002090601f016020900481019282601f106117e85780548555611825565b8280016001018555821561182557600052602060002091601f016020900482015b82811115611824578254825591600101919060010190611809565b5b50905061183291906118b6565b5090565b828054600181600116156101000203166002900490600052602060002090601f016020900481019282601f1061187757805160ff19168380011785556118a5565b828001600101855582156118a5579182015b828111156118a4578251825591602001919060010190611889565b5b5090506118b291906118b6565b5090565b6118d891905b808211156118d45760008160009055506001016118bc565b5090565b90565b60006118e78235611dbc565b905092915050565b600082601f830112151561190257600080fd5b813561191561191082611cfa565b611ccd565b9150808252602083016020830185838301111561193157600080fd5b61193c838284611de6565b50505092915050565b60006119518235611ddc565b905092915050565b60006020828403121561196b57600080fd5b6000611979848285016118db565b91505092915050565b60008060006060848603121561199757600080fd5b60006119a5868287016118db565b935050602084013567ffffffffffffffff8111156119c257600080fd5b6119ce868287016118ef565b92505060406119df86828701611945565b9150509250925092565b6000602082840312156119fb57600080fd5b600082013567ffffffffffffffff811115611a1557600080fd5b611a21848285016118ef565b91505092915050565b60008060408385031215611a3d57600080fd5b600083013567ffffffffffffffff811115611a5757600080fd5b611a63858286016118ef565b9250506020611a7485828601611945565b9150509250929050565b611a8781611d86565b82525050565b6000611a9882611d40565b80845260208401935083602082028501611ab185611d26565b60005b84811015611aea578383038852611acc838351611bd1565b9250611ad782611d6c565b9150602088019750600181019050611ab4565b508196508694505050505092915050565b6000611b0682611d4b565b808452602084019350611b1883611d33565b60005b82811015611b4a57611b2e868351611c0e565b611b3782611d79565b9150604086019550600181019050611b1b565b50849250505092915050565b611b5f81611da6565b82525050565b6000611b7082611d61565b808452611b84816020860160208601611df5565b611b8d81611e28565b602085010191505092915050565b6000611ba682611d56565b808452611bba816020860160208601611df5565b611bc381611e28565b602085010191505092915050565b60006040830160008301518482036000860152611bee8282611b9b565b9150506020830151611c036020860182611c3d565b508091505092915050565b604082016000820151611c246000850182611a7e565b506020820151611c376020850182611b56565b50505050565b611c4681611db2565b82525050565b60006020820190508181036000830152611c668184611a8d565b905092915050565b60006020820190508181036000830152611c888184611afb565b905092915050565b6000602082019050611ca56000830184611b56565b92915050565b60006020820190508181036000830152611cc58184611b65565b905092915050565b6000604051905081810181811067ffffffffffffffff82111715611cf057600080fd5b8060405250919050565b600067ffffffffffffffff821115611d1157600080fd5b601f19601f8301169050602081019050919050565b6000602082019050919050565b6000602082019050919050565b600081519050919050565b600081519050919050565b600081519050919050565b600081519050919050565b6000602082019050919050565b6000602082019050919050565b600073ffffffffffffffffffffffffffffffffffffffff82169050919050565b60008115159050919050565b6000819050919050565b600073ffffffffffffffffffffffffffffffffffffffff82169050919050565b6000819050919050565b82818337600083830152505050565b60005b83811015611e13578082015181840152602081019050611df8565b83811115611e22576000848401525b50505050565b6000601f19601f83011690509190505600a265627a7a72305820c595950522f37d25fc98120da9bd359b35f6c2a24e3e130e190f5d8afb46077d6c6578706572696d656e74616cf50037",
  "source": "pragma solidity ^0.4.20;\npragma experimental ABIEncoderV2; // to be able to return struct arrays \n\nimport \"./safemath.sol\";\n\ncontract Expenses {\n    \n    using SafeMath for uint256;\n    \n    \n    //sets the owner of the contract\n    address owner;\n    \n    //TODO: events \n    event overBudget();\n    event endOfCategory();\n    event expenseApproved();\n    event requestCategory(string _name);\n    \n    \n    constructor() public {\n        //Set owner to who creates the contract\n        owner = msg.sender;\n        //add owner to managers list\n        manager memory temp = manager(owner, true);\n        managers.push(temp); \n    }\n    \n    //Managers\n    struct manager{\n        address _address;\n        bool _exists;\n    }\n    \n    //To remove a manager, just change the _exists bool to false\n    manager[] managers;\n    \n    //Throws if called by an account that is not a manager.\n    modifier isManager(address _address){\n        for (uint i = 0; i < managers.length; i++ ){\n            manager memory temp = managers[i];\n            if (temp._address == _address){\n            _; \n            }\n        }\n    }\n    \n    //addition of approved managers can only be done by an existing manager \n    function _addManager(address _address) public isManager(msg.sender) {\n        manager memory newManager = manager(_address, true);\n        managers.push(newManager);         \n    }\n    \n    //Categories\n    //Stores all current expenseCategory and its allocated budget \n    //TODO: To delete a category \n    struct expense {\n        string _name;\n        uint _budget;\n    }\n    \n    expense[] categories; \n    \n    //  function to create new expense categories which can only be done by an existing manager\n    // TODO: what is the cheapest way to do this?\n    function _createCategory(string _name, uint _budget) public payable isManager(msg.sender) {\n        //duplicate category names will update the original \n        bool found = false; \n        expense memory newCategory; \n        for (uint i = 0; i < categories.length; i++){\n            expense memory item = categories[i];\n            if (keccak256(abi.encodePacked(item._name)) == keccak256(abi.encodePacked(_name))){\n                found = true;\n                categories[i]._budget = _budget;\n            }\n        }\n        //new category to be added to the array \n        if (!found){\n            newCategory._name = _name;\n            newCategory._budget = _budget;\n            categories.push(newCategory);\n        }\n\n    }\n    \n \n    //function to delete category by name which can only be done by an existing manager\n    // TODO: what is the cheapest way to do this?\n    function _deleteCategory(string _name) public isManager(msg.sender) returns(string){\n        bool found = false; \n        for (uint i = 0; i < categories.length; i++){\n            expense memory item = categories[i];\n            if (keccak256(abi.encodePacked(item._name)) == keccak256(abi.encodePacked(_name))){\n                found = true;\n                delete categories[i];\n                categories[i] = categories[categories.length - 1];\n                delete categories[categories.length - 1];\n                \n            }\n        }\n        if (!found){\n            string memory notFound = \" Category was not found.\";\n            return notFound;\n \n        }\n        \n    }\n    \n    \n    \n    modifier isCategory(string _name){\n        //category does not exist so trigger event to request the manager to create a new category\n        for (uint i = 0; i < categories.length; i++){\n            expense memory item = categories[i];\n            if (keccak256(abi.encodePacked(item._name)) == keccak256(abi.encodePacked(_name))){\n                _;\n            }\n        }\n        emit requestCategory(_name);\n    }\n    \n    \n    \n    //Employees\n    //holds an employee current expenses \n    //Placed it in a struct because mapping cannot have embedded mappings \n    struct spent {\n        mapping (string => uint) _spent;\n        mapping (string => uint) _remainder;\n    }\n    \n    //maps an employee address to their current expenses\n    mapping (address => spent) employeeExpenses;\n    \n\n    //Throws if there is no more budget for a specific category\n    function  _isValidExpense(address _address, string _name, uint _cost) public isCategory(_name) returns(bool) {\n            //therefore this category exists \n            uint temp =  employeeExpenses[_address]._spent[_name];\n            // add new cost to existing category expenditure\n            temp = temp.add(_cost);\n            //get the max budget for category\n            uint budget;\n            for (uint i = 0; i < categories.length; i++){\n                expense memory item = categories[i];\n                if (keccak256(abi.encodePacked(item._name)) == keccak256(abi.encodePacked(_name))){\n                    budget = item._budget;\n                }\n            }            \n            if ( temp <= budget){\n                //update employee expenditure for that category \n                employeeExpenses[_address]._spent[_name]= temp;\n                employeeExpenses[_address]._remainder[_name]= budget.sub(temp);\n                emit expenseApproved();\n                return true;\n            }\n            else{\n                emit overBudget();\n                return false;\n            }\n    }\n    \n    //GetFunctions \n    function _viewManagers() view external returns(manager[]) {\n        return managers;\n    }\n    \n    function _viewCategories() view external returns(expense[]){\n        return categories;\n    }\n    /*\n    function _employeeSpent(address _employee) external{\n        spent storage spending = employeeExpenses[_employee]; //holds the _spent and _remainder for employeeExpenses\n        //creats array of employee expenses\n        expense[] storage expenses = expense(\"\", 0); \n       // expense[] storage expenses; \n        //create a temp array to store categories\n        expense[] memory allSpent = categories; //will store _name and _budget\n        for (uint i = 0; i < allSpent.length; i++){\n            expense memory item = allSpent[i];\n            item._budget = spending._spent[item._name];\n            if (i == 0){\n                \n            }\n            expenses.push(item);\n            \n        }\n    \n    function _employeeSpent(address _employee) view returns(spent[]){\n        return employeeExpenses[_employee]; \n        \n    }\n    */\n    \n\n    \n}\n\n//Flat company structure: where the quota for each category is set for all employees in the org \n",
  "sourcePath": "/Users/t-whgri/Desktop/transdapp/contracts/Expenses.sol",
  "compiler": {
    "name": "solc",
    "version": "0.4.24+commit.e67f0147.Emscripten.clang"
  },
  "schemaVersion": "2.0.0",
  "updatedAt": "2018-07-16T21:07:49.968Z"
}